{
  "contractName": "SendToFallback",
  "abi": [
    {
      "inputs": [
        {
          "internalType": "address payable",
          "name": "_to",
          "type": "address"
        }
      ],
      "name": "transferToFallback",
      "outputs": [],
      "stateMutability": "payable",
      "type": "function",
      "payable": true
    },
    {
      "inputs": [
        {
          "internalType": "address payable",
          "name": "_to",
          "type": "address"
        }
      ],
      "name": "callFallback",
      "outputs": [],
      "stateMutability": "payable",
      "type": "function",
      "payable": true
    }
  ],
  "bytecode": "0x608060405234801561001057600080fd5b50610216806100206000396000f3fe6080604052600436106100295760003560e01c80636ba87a531461002e578063cfc6cdaa14610072575b600080fd5b6100706004803603602081101561004457600080fd5b81019080803573ffffffffffffffffffffffffffffffffffffffff1690602001909291905050506100b6565b005b6100b46004803603602081101561008857600080fd5b81019080803573ffffffffffffffffffffffffffffffffffffffff169060200190929190505050610196565b005b60008173ffffffffffffffffffffffffffffffffffffffff163460405180600001905060006040518083038185875af1925050503d8060008114610116576040519150601f19603f3d011682016040523d82523d6000602084013e61011b565b606091505b5050905080610192576040517f08c379a00000000000000000000000000000000000000000000000000000000081526004018080602001828103825260148152602001807f4661696c656420746f2073656e6420457468657200000000000000000000000081525060200191505060405180910390fd5b5050565b8073ffffffffffffffffffffffffffffffffffffffff166108fc349081150290604051600060405180830381858888f193505050501580156101dc573d6000803e3d6000fd5b505056fea2646970667358221220755d1744b00b93de4a740ca6bd3c9ef90c3e1b2431b93488b5b401c29051306f64736f6c63430007060033",
  "immutableReferences": {},
  "source": "// SPDX-License-Identifier: MIT\r\npragma solidity ^0.7.6;\r\n\r\n// fallback is a func that does not take any arguments and does return anything.\r\n// it is executed either when\r\n// - a func that does not exist is called\r\n// - Ether is sent directly to a contract but receive() does not exist or msg.data is not empty\r\n// fallback has a 2300 gas limit when called by transfer or send.\r\n\r\ncontract Fallback {\r\n    event Log(uint gas);\r\n\r\n    // Fallback func must be declared as external.\r\n    fallback() external payable {\r\n        // send/transfer (forwards 2300 gas to this fallback func)\r\n        // call (forwards all of the gas)\r\n        emit Log(gasleft());\r\n    }\r\n\r\n    // helper func to check the balance of this contract\r\n    function getBalance() public view returns (uint) {\r\n        return address(this).balance;\r\n    }\r\n}\r\n\r\ncontract SendToFallback {\r\n    function transferToFallback(address payable _to) public payable {\r\n        _to.transfer(msg.value);\r\n    }\r\n\r\n    function callFallback(address payable _to) public payable {\r\n        (bool sent, ) = _to.call{value: msg.value}(\"\");\r\n        require(sent, \"Failed to send Ether\");\r\n    }\r\n}",
  "sourcePath": "F:/ETHDapp/fallback/contracts/Fallback.sol",
  "compiler": {
    "name": "solc",
    "version": "0.7.6+commit.7338295f.Emscripten.clang"
  },
  "schemaVersion": "3.3.3",
  "updatedAt": "2021-01-14T09:29:11.899Z",
  "networkType": "ethereum",
  "devdoc": {
    "kind": "dev",
    "methods": {},
    "version": 1
  },
  "userdoc": {
    "kind": "user",
    "methods": {},
    "version": 1
  }
}