{
  "contractName": "A",
  "abi": [
    {
      "anonymous": false,
      "inputs": [
        {
          "indexed": false,
          "internalType": "bool",
          "name": "success",
          "type": "bool"
        },
        {
          "indexed": false,
          "internalType": "bytes",
          "name": "data",
          "type": "bytes"
        }
      ],
      "name": "Response",
      "type": "event"
    },
    {
      "inputs": [],
      "name": "num",
      "outputs": [
        {
          "internalType": "uint256",
          "name": "",
          "type": "uint256"
        }
      ],
      "stateMutability": "view",
      "type": "function",
      "constant": true
    },
    {
      "inputs": [],
      "name": "sender",
      "outputs": [
        {
          "internalType": "address",
          "name": "",
          "type": "address"
        }
      ],
      "stateMutability": "view",
      "type": "function",
      "constant": true
    },
    {
      "inputs": [],
      "name": "value",
      "outputs": [
        {
          "internalType": "uint256",
          "name": "",
          "type": "uint256"
        }
      ],
      "stateMutability": "view",
      "type": "function",
      "constant": true
    },
    {
      "inputs": [
        {
          "internalType": "address",
          "name": "_contract",
          "type": "address"
        },
        {
          "internalType": "uint256",
          "name": "_num",
          "type": "uint256"
        }
      ],
      "name": "setVars",
      "outputs": [],
      "stateMutability": "payable",
      "type": "function",
      "payable": true
    }
  ],
  "bytecode": "0x608060405234801561001057600080fd5b50610382806100206000396000f3fe60806040526004361061003f5760003560e01c80633fa4f245146100445780634e70b1dc1461006f57806367e404ce1461009a578063d1e0f308146100db575b600080fd5b34801561005057600080fd5b50610059610129565b6040518082815260200191505060405180910390f35b34801561007b57600080fd5b5061008461012f565b6040518082815260200191505060405180910390f35b3480156100a657600080fd5b506100af610135565b604051808273ffffffffffffffffffffffffffffffffffffffff16815260200191505060405180910390f35b610127600480360360408110156100f157600080fd5b81019080803573ffffffffffffffffffffffffffffffffffffffff1690602001909291908035906020019092919050505061015b565b005b60025481565b60005481565b600160009054906101000a900473ffffffffffffffffffffffffffffffffffffffff1681565b6000808373ffffffffffffffffffffffffffffffffffffffff1683604051602401808281526020019150506040516020818303038152906040527f6466414b000000000000000000000000000000000000000000000000000000007bffffffffffffffffffffffffffffffffffffffffffffffffffffffff19166020820180517bffffffffffffffffffffffffffffffffffffffffffffffffffffffff83818316178352505050506040518082805190602001908083835b602083106102365780518252602082019150602081019050602083039250610213565b6001836020036101000a038019825116818451168082178552505050505050905001915050600060405180830381855af49150503d8060008114610296576040519150601f19603f3d011682016040523d82523d6000602084013e61029b565b606091505b50915091507f13848c3e38f8886f3f5d2ad9dff80d8092c2bbb8efd5b887a99c2c6cfc09ac2a828260405180831515815260200180602001828103825283818151815260200191508051906020019080838360005b8381101561030b5780820151818401526020810190506102f0565b50505050905090810190601f1680156103385780820380516001836020036101000a031916815260200191505b50935050505060405180910390a15050505056fea2646970667358221220c489e8c0f9c8bee27ead55e6b84b2fce786e16915fc7896f4f24d25f0afc3bd664736f6c63430007060033",
  "immutableReferences": {},
  "source": "// SPDX-License-Identifier: MIT\r\n\r\n// delegatecall is a low level function similar to call.\r\n/**\r\n *   when contract A executes delegatecall to contract B, B's code\r\n * is excuted with contract A's storage, msg.sender and msg.value.\r\n **/ \r\n\r\npragma solidity ^0.7.6;\r\n\r\ncontract B {\r\n    // NOTE: storage layout must be the same as contract A\r\n    uint    public num;\r\n    address public sender;\r\n    uint    public value;\r\n\r\n    function setVars(uint _num) public payable {\r\n        num    = _num;\r\n        sender = msg.sender;\r\n        value  = msg.value;\r\n    }\r\n}\r\n\r\ncontract A {\r\n    uint    public num;\r\n    address public sender;\r\n    uint    public value;\r\n\r\n    event Response(bool success, bytes data);\r\n\r\n    function setVars(address _contract, uint _num) public payable {\r\n        // A's storage is set, B is not modified.\r\n        (bool success, bytes memory data) = _contract.delegatecall(\r\n            abi.encodeWithSignature(\"setVars(uint256)\", _num)\r\n        );\r\n        emit Response(success, data);\r\n    }\r\n}",
  "sourcePath": "F:/ETHDapp/delegatecall/contracts/Delegatecall.sol",
  "compiler": {
    "name": "solc",
    "version": "0.7.6+commit.7338295f.Emscripten.clang"
  },
  "schemaVersion": "3.3.3",
  "updatedAt": "2021-01-15T03:47:56.057Z",
  "networkType": "ethereum",
  "devdoc": {
    "kind": "dev",
    "methods": {},
    "version": 1
  },
  "userdoc": {
    "kind": "user",
    "methods": {},
    "version": 1
  }
}