{
  "contractName": "Caller",
  "abi": [
    {
      "anonymous": false,
      "inputs": [
        {
          "indexed": false,
          "internalType": "bool",
          "name": "success",
          "type": "bool"
        },
        {
          "indexed": false,
          "internalType": "bytes",
          "name": "data",
          "type": "bytes"
        }
      ],
      "name": "Response",
      "type": "event"
    },
    {
      "inputs": [
        {
          "internalType": "address payable",
          "name": "_addr",
          "type": "address"
        }
      ],
      "name": "testCallFoo",
      "outputs": [],
      "stateMutability": "payable",
      "type": "function",
      "payable": true
    },
    {
      "inputs": [
        {
          "internalType": "address",
          "name": "_addr",
          "type": "address"
        }
      ],
      "name": "testCallDoesNotExist",
      "outputs": [],
      "stateMutability": "nonpayable",
      "type": "function"
    }
  ],
  "bytecode": "0x608060405234801561001057600080fd5b50610512806100206000396000f3fe6080604052600436106100295760003560e01c806387ba61791461002e578063ff00726c14610072575b600080fd5b6100706004803603602081101561004457600080fd5b81019080803573ffffffffffffffffffffffffffffffffffffffff1690602001909291905050506100c3565b005b34801561007e57600080fd5b506100c16004803603602081101561009557600080fd5b81019080803573ffffffffffffffffffffffffffffffffffffffff1690602001909291905050506102f5565b005b6000808273ffffffffffffffffffffffffffffffffffffffff163461c35090607b6040516024018080602001838152602001828103825260088152602001807f63616c6c20666f6f000000000000000000000000000000000000000000000000815250602001925050506040516020818303038152906040527f2fae309d000000000000000000000000000000000000000000000000000000007bffffffffffffffffffffffffffffffffffffffffffffffffffffffff19166020820180517bffffffffffffffffffffffffffffffffffffffffffffffffffffffff83818316178352505050506040518082805190602001908083835b602083106101dd57805182526020820191506020810190506020830392506101ba565b6001836020036101000a038019825116818451168082178552505050505050905001915050600060405180830381858888f193505050503d8060008114610240576040519150601f19603f3d011682016040523d82523d6000602084013e610245565b606091505b50915091507f13848c3e38f8886f3f5d2ad9dff80d8092c2bbb8efd5b887a99c2c6cfc09ac2a828260405180831515815260200180602001828103825283818151815260200191508051906020019080838360005b838110156102b557808201518184015260208101905061029a565b50505050905090810190601f1680156102e25780820380516001836020036101000a031916815260200191505b50935050505060405180910390a1505050565b6000808273ffffffffffffffffffffffffffffffffffffffff166040516024016040516020818303038152906040527f1dcc85ae000000000000000000000000000000000000000000000000000000007bffffffffffffffffffffffffffffffffffffffffffffffffffffffff19166020820180517bffffffffffffffffffffffffffffffffffffffffffffffffffffffff83818316178352505050506040518082805190602001908083835b602083106103c557805182526020820191506020810190506020830392506103a2565b6001836020036101000a0380198251168184511680821785525050505050509050019150506000604051808303816000865af19150503d8060008114610427576040519150601f19603f3d011682016040523d82523d6000602084013e61042c565b606091505b50915091507f13848c3e38f8886f3f5d2ad9dff80d8092c2bbb8efd5b887a99c2c6cfc09ac2a828260405180831515815260200180602001828103825283818151815260200191508051906020019080838360005b8381101561049c578082015181840152602081019050610481565b50505050905090810190601f1680156104c95780820380516001836020036101000a031916815260200191505b50935050505060405180910390a150505056fea2646970667358221220a748593958a2c9605a4a7989e5778e04d5bef1b06cd7e2f2e51cf7c024df364864736f6c63430007060033",
  "immutableReferences": {},
  "source": "// SPDX-License-Identifier: MIT\r\n\r\n// call is a low level function to interact with other contracts.\r\n// this is the recommended method to use when you're just sending Ether vai call the fallback function.\r\n// however it is not the recommend way to call existing functions.\r\n\r\npragma solidity ^0.7.6;\r\n\r\ncontract Receiver {\r\n    event Received(address caller, uint amount, string message);\r\n\r\n    receive() external payable {\r\n        emit Received(msg.sender, msg.value, \"Fallback was called\");\r\n    }\r\n\r\n    function foo(string memory _message, uint _x) public payable returns (uint) {\r\n        emit Received(msg.sender, msg.value, _message);\r\n\r\n        return _x + 1;\r\n    }\r\n}\r\n\r\ncontract Caller {\r\n    event Response(bool success, bytes data);\r\n\r\n    /** \r\n     *   Let's imagine that contract B does not have the source code for\r\n     * contract A, but we do know the address of A and the func to call.\r\n     */\r\n    function testCallFoo(address payable _addr) public payable {\r\n        // you can send ether and specify a custom gas amount\r\n        (bool success, bytes memory data) = _addr.call{value: msg.value, gas: 50000}(\r\n            abi.encodeWithSignature(\"foo(string, uint256)\", \"call foo\", 123)\r\n        );\r\n\r\n        emit Response(success, data);\r\n    }\r\n\r\n    // calling a function that does not exist triggers the fallback function.\r\n    function testCallDoesNotExist(address _addr) public {\r\n        (bool success, bytes memory data) = _addr.call(\r\n            abi.encodeWithSignature(\"doesNotExist()\")\r\n        );\r\n\r\n        emit Response(success, data);\r\n    }\r\n}",
  "sourcePath": "F:/ETHDapp/call/contracts/Call.sol",
  "compiler": {
    "name": "solc",
    "version": "0.7.6+commit.7338295f.Emscripten.clang"
  },
  "schemaVersion": "3.3.3",
  "updatedAt": "2021-01-15T03:03:33.780Z",
  "networkType": "ethereum",
  "devdoc": {
    "kind": "dev",
    "methods": {},
    "version": 1
  },
  "userdoc": {
    "kind": "user",
    "methods": {
      "testCallFoo(address)": {
        "notice": "Let's imagine that contract B does not have the source code for contract A, but we do know the address of A and the func to call."
      }
    },
    "version": 1
  }
}