{
  "contractName": "Base",
  "abi": [
    {
      "inputs": [],
      "name": "publicVar",
      "outputs": [
        {
          "internalType": "string",
          "name": "",
          "type": "string"
        }
      ],
      "stateMutability": "view",
      "type": "function",
      "constant": true
    },
    {
      "inputs": [],
      "name": "testPrivateFunc",
      "outputs": [
        {
          "internalType": "string",
          "name": "",
          "type": "string"
        }
      ],
      "stateMutability": "pure",
      "type": "function",
      "constant": true
    },
    {
      "inputs": [],
      "name": "testInternalFunc",
      "outputs": [
        {
          "internalType": "string",
          "name": "",
          "type": "string"
        }
      ],
      "stateMutability": "pure",
      "type": "function",
      "constant": true
    },
    {
      "inputs": [],
      "name": "publicFunc",
      "outputs": [
        {
          "internalType": "string",
          "name": "",
          "type": "string"
        }
      ],
      "stateMutability": "pure",
      "type": "function",
      "constant": true
    },
    {
      "inputs": [],
      "name": "externalFunc",
      "outputs": [
        {
          "internalType": "string",
          "name": "",
          "type": "string"
        }
      ],
      "stateMutability": "pure",
      "type": "function",
      "constant": true
    }
  ],
  "bytecode": "0x60806040526040518060400160405280601381526020017f6d792070726976617465207661726961626c65000000000000000000000000008152506000908051906020019061004f9291906100fa565b506040518060400160405280601481526020017f6d7920696e7465726e616c207661726961626c650000000000000000000000008152506001908051906020019061009b9291906100fa565b506040518060400160405280601281526020017f6d79207075626c6963207661726961626c650000000000000000000000000000815250600290805190602001906100e79291906100fa565b503480156100f457600080fd5b506101a5565b828054600181600116156101000203166002900490600052602060002090601f0160209004810192826101305760008555610177565b82601f1061014957805160ff1916838001178555610177565b82800160010185558215610177579182015b8281111561017657825182559160200191906001019061015b565b5b5090506101849190610188565b5090565b5b808211156101a1576000816000905550600101610189565b5090565b6104d1806101b46000396000f3fe608060405234801561001057600080fd5b50600436106100575760003560e01c80630eb13f871461005c5780631151fad8146100df57806342b148aa146101625780634b73383f146101e5578063e8e46c4114610268575b600080fd5b6100646102eb565b6040518080602001828103825283818151815260200191508051906020019080838360005b838110156100a4578082015181840152602081019050610089565b50505050905090810190601f1680156100d15780820380516001836020036101000a031916815260200191505b509250505060405180910390f35b6100e76102fa565b6040518080602001828103825283818151815260200191508051906020019080838360005b8381101561012757808201518184015260208101905061010c565b50505050905090810190601f1680156101545780820380516001836020036101000a031916815260200191505b509250505060405180910390f35b61016a610398565b6040518080602001828103825283818151815260200191508051906020019080838360005b838110156101aa57808201518184015260208101905061018f565b50505050905090810190601f1680156101d75780820380516001836020036101000a031916815260200191505b509250505060405180910390f35b6101ed6103d5565b6040518080602001828103825283818151815260200191508051906020019080838360005b8381101561022d578082015181840152602081019050610212565b50505050905090810190601f16801561025a5780820380516001836020036101000a031916815260200191505b509250505060405180910390f35b610270610412565b6040518080602001828103825283818151815260200191508051906020019080838360005b838110156102b0578082015181840152602081019050610295565b50505050905090810190601f1680156102dd5780820380516001836020036101000a031916815260200191505b509250505060405180910390f35b60606102f5610421565b905090565b60028054600181600116156101000203166002900480601f0160208091040260200160405190810160405280929190818152602001828054600181600116156101000203166002900480156103905780601f1061036557610100808354040283529160200191610390565b820191906000526020600020905b81548152906001019060200180831161037357829003601f168201915b505050505081565b60606040518060400160405280601881526020017f65787465726e616c2066756e6374696f6e2063616c6c65640000000000000000815250905090565b60606040518060400160405280601681526020017f7075626c69632066756e6374696f6e2063616c6c656400000000000000000000815250905090565b606061041c61045e565b905090565b60606040518060400160405280601381526020017f707269766174652066756e632063616c6c656400000000000000000000000000815250905090565b60606040518060400160405280601881526020017f696e7465726e616c2066756e6374696f6e2063616c6c6564000000000000000081525090509056fea2646970667358221220556c227d5625a2a2cec6b47edf0e5ed87b49ba1a7475ad2d00b8f9e7a4ee62b064736f6c63430007060033",
  "immutableReferences": {},
  "source": "// SPDX-License-Identifier: MIT\r\n\r\npragma solidity ^0.7.6;\r\n\r\n// func and state variables have to declare whether they are accessible by other contracts.\r\n/**\r\n * functions can be declared as:\r\n * - public: any contract and account can call\r\n * - private: only inside the contract that defines the func\r\n * - internal: only inside contract that inherits an internal function, 与private相似, 不同在于子类合约也可以访问父类合约的internal函数.\r\n * - external: only other contracts and accounts can call, 与public相似, 不同在于不能被合约内的其他函数调用.\r\n */\r\n// State variables can be declared as public, private, or internal but not external.\r\n\r\ncontract Base {\r\n    // private function can only be called inside this contract\r\n    // contracts that inherit this contract cannot call this func.\r\n    function privateFunc() private pure returns (string memory) {\r\n        return \"private func called\";\r\n    }\r\n\r\n    function testPrivateFunc() public pure returns (string memory) {\r\n        return privateFunc();\r\n    }\r\n\r\n    // internal func can be called \r\n    // - inside this contract\r\n    // - inside contracts that inherit this contract\r\n    function internalFunc() internal pure returns (string memory) {\r\n        return \"internal function called\";\r\n    }\r\n\r\n    function testInternalFunc() public pure virtual returns (string memory) {\r\n        return internalFunc();\r\n    }\r\n\r\n    // public functions can be called\r\n    // - inside this contract\r\n    // - inside contracts that inherit this contract\r\n    // - by other contracts and accounts\r\n    function publicFunc() public pure returns (string memory) {\r\n        return \"public function called\";\r\n    }\r\n\r\n    // external functions can only be called\r\n    // - by other contract and accounts\r\n    function externalFunc() external pure returns (string memory) {\r\n        return \"external function called\";\r\n    }\r\n\r\n    // This function will not compile since we're trying to call\r\n    // an external function here.\r\n    // function testExternalFunc() public pure returns (string memory) {\r\n    //     return externalFunc();\r\n    // }\r\n\r\n    // State variables\r\n    string private privateVar = \"my private variable\";\r\n    string internal internalVar = \"my internal variable\";\r\n    string public publicVar = \"my public variable\";\r\n    // State variables cannot be external so this code won't compile.\r\n    // string external externalVar = \"my external variable\";\r\n}\r\n\r\ncontract Child is Base {\r\n    // Inherited contracts do not have access to private functions\r\n    // and state variables.\r\n    // function testPrivateFunc() public pure returns (string memory) {\r\n    //     return privateFunc();\r\n    // }\r\n\r\n    // Internal function call be called inside child contracts.\r\n    function testInternalFunc() public pure override returns (string memory) {\r\n        return internalFunc();\r\n    }\r\n}",
  "sourcePath": "F:/ETHDapp/visibility/contracts/visibility.sol",
  "compiler": {
    "name": "solc",
    "version": "0.7.6+commit.7338295f.Emscripten.clang"
  },
  "schemaVersion": "3.3.3",
  "updatedAt": "2021-01-13T10:39:42.608Z",
  "networkType": "ethereum",
  "devdoc": {
    "kind": "dev",
    "methods": {},
    "version": 1
  },
  "userdoc": {
    "kind": "user",
    "methods": {},
    "notice": "functions can be declared as: - public: any contract and account can call - private: only inside the contract that defines the func - internal: only inside contract that inherits an internal function, 与private相似, 不同在于子类合约也可以访问父类合约的internal函数. - external: only other contracts and accounts can call, 与public相似, 不同在于不能被合约内的其他函数调用.",
    "version": 1
  }
}