{
  "contractName": "Bar",
  "abi": [
    {
      "inputs": [],
      "stateMutability": "nonpayable",
      "type": "constructor"
    },
    {
      "anonymous": false,
      "inputs": [
        {
          "indexed": false,
          "internalType": "string",
          "name": "message",
          "type": "string"
        }
      ],
      "name": "Log",
      "type": "event"
    },
    {
      "anonymous": false,
      "inputs": [
        {
          "indexed": false,
          "internalType": "bytes",
          "name": "data",
          "type": "bytes"
        }
      ],
      "name": "LogBytes",
      "type": "event"
    },
    {
      "inputs": [],
      "name": "foo",
      "outputs": [
        {
          "internalType": "contract Foo",
          "name": "",
          "type": "address"
        }
      ],
      "stateMutability": "view",
      "type": "function",
      "constant": true
    },
    {
      "inputs": [
        {
          "internalType": "uint256",
          "name": "_i",
          "type": "uint256"
        }
      ],
      "name": "tryCatchExternalCall",
      "outputs": [],
      "stateMutability": "nonpayable",
      "type": "function"
    },
    {
      "inputs": [
        {
          "internalType": "address",
          "name": "_owner",
          "type": "address"
        }
      ],
      "name": "tryCatchNewContract",
      "outputs": [],
      "stateMutability": "nonpayable",
      "type": "function"
    }
  ],
  "bytecode": "0x608060405234801561001057600080fd5b503360405161001e9061009f565b808273ffffffffffffffffffffffffffffffffffffffff168152602001915050604051809103906000f08015801561005a573d6000803e3d6000fd5b506000806101000a81548173ffffffffffffffffffffffffffffffffffffffff021916908373ffffffffffffffffffffffffffffffffffffffff1602179055506100ac565b61039480610a8a83390190565b6109cf806100bb6000396000f3fe608060405234801561001057600080fd5b50600436106100415760003560e01c806377bdab8314610046578063933ac0841461008a578063c2985578146100b8575b600080fd5b6100886004803603602081101561005c57600080fd5b81019080803573ffffffffffffffffffffffffffffffffffffffff1690602001909291905050506100ec565b005b6100b6600480360360208110156100a057600080fd5b810190808035906020019092919050505061028b565b005b6100c0610500565b604051808273ffffffffffffffffffffffffffffffffffffffff16815260200191505060405180910390f35b806040516100f990610524565b808273ffffffffffffffffffffffffffffffffffffffff168152602001915050604051809103906000f0801561012c5760015b61021e5761013861054f565b8061014357506101e5565b7fcf34ef537ac33ee1ac626ca1587a0a7e8e51561e5514f8cb36afa1c5102b3bab816040518080602001828103825283818151815260200191508051906020019080838360005b838110156101a557808201518184015260208101905061018a565b50505050905090810190601f1680156101d25780820380516001836020036101000a031916815260200191505b509250505060405180910390a150610219565b3d8060008114610211576040519150601f19603f3d011682016040523d82523d6000602084013e610216565b606091505b50505b610288565b7fcf34ef537ac33ee1ac626ca1587a0a7e8e51561e5514f8cb36afa1c5102b3bab60405180806020018281038252600b8152602001807f466f6f206372656174656400000000000000000000000000000000000000000081525060200191505060405180910390a1505b50565b60008054906101000a900473ffffffffffffffffffffffffffffffffffffffff1673ffffffffffffffffffffffffffffffffffffffff1663a9bf5633826040518263ffffffff1660e01b81526004018082815260200191505060006040518083038186803b1580156102fc57600080fd5b505afa9250505080156103ee57506040513d6000823e3d601f19601f82011682018060405250602081101561033057600080fd5b810190808051604051939291908464010000000082111561035057600080fd5b8382019150602082018581111561036657600080fd5b825186600182028301116401000000008211171561038357600080fd5b8083526020830192505050908051906020019080838360005b838110156103b757808201518184015260208101905061039c565b50505050905090810190601f1680156103e45780820380516001836020036101000a031916815260200191505b5060405250505060015b61045f577fcf34ef537ac33ee1ac626ca1587a0a7e8e51561e5514f8cb36afa1c5102b3bab6040518080602001828103825260148152602001807f65787465726e616c2063616c6c206661696c656400000000000000000000000081525060200191505060405180910390a16104fd565b7fcf34ef537ac33ee1ac626ca1587a0a7e8e51561e5514f8cb36afa1c5102b3bab816040518080602001828103825283818151815260200191508051906020019080838360005b838110156104c15780820151818401526020810190506104a6565b50505050905090810190601f1680156104ee5780820380516001836020036101000a031916815260200191505b509250505060405180910390a1505b50565b60008054906101000a900473ffffffffffffffffffffffffffffffffffffffff1681565b6103948061060683390190565b6000601f19601f8301169050919050565b60008160e01c9050919050565b600060443d101561055f57610602565b60046000803e610570600051610542565b6308c379a081146105815750610602565b60405160043d036004823e80513d602482011167ffffffffffffffff821117156105ad57505050610602565b808201805167ffffffffffffffff8111156105cc575050505050610602565b8060208301013d85018111156105e757505050505050610602565b6105f082610531565b60208401016040528296505050505050505b9056fe608060405234801561001057600080fd5b506040516103943803806103948339818101604052602081101561003357600080fd5b8101908080519060200190929190505050600073ffffffffffffffffffffffffffffffffffffffff168173ffffffffffffffffffffffffffffffffffffffff1614156100e7576040517f08c379a000000000000000000000000000000000000000000000000000000000815260040180806020018281038252600f8152602001807f696e76616c69642061646472657373000000000000000000000000000000000081525060200191505060405180910390fd5b600173ffffffffffffffffffffffffffffffffffffffff168173ffffffffffffffffffffffffffffffffffffffff16141561011e57fe5b806000806101000a81548173ffffffffffffffffffffffffffffffffffffffff021916908373ffffffffffffffffffffffffffffffffffffffff160217905550506102268061016e6000396000f3fe608060405234801561001057600080fd5b50600436106100365760003560e01c80638da5cb5b1461003b578063a9bf56331461006f575b600080fd5b610043610116565b604051808273ffffffffffffffffffffffffffffffffffffffff16815260200191505060405180910390f35b61009b6004803603602081101561008557600080fd5b810190808035906020019092919050505061013a565b6040518080602001828103825283818151815260200191508051906020019080838360005b838110156100db5780820151818401526020810190506100c0565b50505050905090810190601f1680156101085780820380516001836020036101000a031916815260200191505b509250505060405180910390f35b60008054906101000a900473ffffffffffffffffffffffffffffffffffffffff1681565b606060008214156101b3576040517f08c379a000000000000000000000000000000000000000000000000000000000815260040180806020018281038252600e8152602001807f72657175697265206661696c656400000000000000000000000000000000000081525060200191505060405180910390fd5b6040518060400160405280601281526020017f6d792066756e63207761732063616c6c65640000000000000000000000000000815250905091905056fea2646970667358221220f253c0402f127ab6540c795a6db16e6623610a1aa016e73d51f65cd22e0d815564736f6c63430007060033a2646970667358221220a388417d3cbd806e7ee50423a73321c1ac5e28ed7e498bc503c1cb68ece8c9e764736f6c63430007060033608060405234801561001057600080fd5b506040516103943803806103948339818101604052602081101561003357600080fd5b8101908080519060200190929190505050600073ffffffffffffffffffffffffffffffffffffffff168173ffffffffffffffffffffffffffffffffffffffff1614156100e7576040517f08c379a000000000000000000000000000000000000000000000000000000000815260040180806020018281038252600f8152602001807f696e76616c69642061646472657373000000000000000000000000000000000081525060200191505060405180910390fd5b600173ffffffffffffffffffffffffffffffffffffffff168173ffffffffffffffffffffffffffffffffffffffff16141561011e57fe5b806000806101000a81548173ffffffffffffffffffffffffffffffffffffffff021916908373ffffffffffffffffffffffffffffffffffffffff160217905550506102268061016e6000396000f3fe608060405234801561001057600080fd5b50600436106100365760003560e01c80638da5cb5b1461003b578063a9bf56331461006f575b600080fd5b610043610116565b604051808273ffffffffffffffffffffffffffffffffffffffff16815260200191505060405180910390f35b61009b6004803603602081101561008557600080fd5b810190808035906020019092919050505061013a565b6040518080602001828103825283818151815260200191508051906020019080838360005b838110156100db5780820151818401526020810190506100c0565b50505050905090810190601f1680156101085780820380516001836020036101000a031916815260200191505b509250505060405180910390f35b60008054906101000a900473ffffffffffffffffffffffffffffffffffffffff1681565b606060008214156101b3576040517f08c379a000000000000000000000000000000000000000000000000000000000815260040180806020018281038252600e8152602001807f72657175697265206661696c656400000000000000000000000000000000000081525060200191505060405180910390fd5b6040518060400160405280601281526020017f6d792066756e63207761732063616c6c65640000000000000000000000000000815250905091905056fea2646970667358221220f253c0402f127ab6540c795a6db16e6623610a1aa016e73d51f65cd22e0d815564736f6c63430007060033",
  "immutableReferences": {},
  "source": "// SPDX-License-Identifier: MIT\r\n\r\n// try/catch can only catch errors from external function calls and contract creation.\r\n\r\npragma solidity ^0.7.6;\r\n\r\n// external contract used for try/catch examples\r\ncontract Foo {\r\n    address public owner;\r\n\r\n    constructor (address _owner) {\r\n        require(_owner != address(0), \"invalid address\");\r\n        assert(_owner != 0x0000000000000000000000000000000000000001);\r\n        owner = _owner;\r\n    }\r\n\r\n    function myFunc(uint x) public pure returns (string memory) {\r\n        require(x != 0, \"require failed\");\r\n        return \"my func was called\";\r\n    }\r\n}\r\n\r\ncontract Bar {\r\n    event Log(string message);\r\n    event LogBytes(bytes data);\r\n\r\n    Foo public foo;\r\n\r\n    constructor() {\r\n        // this foo contract is used for example of try catch with external call\r\n        foo = new Foo(msg.sender);\r\n    }\r\n\r\n    // Example of try / catch with external call\r\n    // tryCatchExternalCall(0) => Log(\"external call failed\")\r\n    // tryCatchExternalCall(1) => Log(\"my func was called\")\r\n    function tryCatchExternalCall(uint _i) public {\r\n        try foo.myFunc(_i) returns (string memory result) {\r\n            emit Log(result);\r\n        } catch {\r\n            emit Log(\"external call failed\");\r\n        }\r\n    }\r\n\r\n    // example of try/catch with contract creation\r\n    // tryCatchNewContract(0x0000000000000000000000000000000000000000) => Log(\"invalid address\")\r\n    // tryCatchNewContract(0x0000000000000000000000000000000000000001) => LogBytes(\"\")\r\n    // tryCatchNewContract(0x0000000000000000000000000000000000000002) => Log(\"Foo created\")\r\n    function tryCatchNewContract(address _owner) public {\r\n        try new Foo(_owner) returns (Foo foo) {\r\n            // you can use variable foo here\r\n            emit Log(\"Foo created\");\r\n        } catch Error(string memory reason) {\r\n            // catch failing revert() and require()\r\n            emit Log(reason);\r\n        } catch (bytes memory reason) {\r\n            // catch failing assert()\r\n        }\r\n    }\r\n}",
  "sourcePath": "F:/ETHDapp/try_catch/contracts/TryCatch.sol",
  "compiler": {
    "name": "solc",
    "version": "0.7.6+commit.7338295f.Emscripten.clang"
  },
  "schemaVersion": "3.3.3",
  "updatedAt": "2021-01-18T07:20:12.786Z",
  "networkType": "ethereum",
  "devdoc": {
    "kind": "dev",
    "methods": {},
    "version": 1
  },
  "userdoc": {
    "kind": "user",
    "methods": {},
    "version": 1
  }
}