{
  "contractName": "Payable",
  "abi": [
    {
      "inputs": [],
      "stateMutability": "payable",
      "type": "constructor",
      "payable": true
    },
    {
      "inputs": [],
      "name": "owner",
      "outputs": [
        {
          "internalType": "address payable",
          "name": "",
          "type": "address"
        }
      ],
      "stateMutability": "view",
      "type": "function",
      "constant": true
    },
    {
      "inputs": [],
      "name": "deposit",
      "outputs": [],
      "stateMutability": "payable",
      "type": "function",
      "payable": true
    },
    {
      "inputs": [],
      "name": "notPayable",
      "outputs": [],
      "stateMutability": "nonpayable",
      "type": "function"
    },
    {
      "inputs": [],
      "name": "withdraw",
      "outputs": [],
      "stateMutability": "nonpayable",
      "type": "function"
    },
    {
      "inputs": [
        {
          "internalType": "address payable",
          "name": "_to",
          "type": "address"
        },
        {
          "internalType": "uint256",
          "name": "_amount",
          "type": "uint256"
        }
      ],
      "name": "transfer",
      "outputs": [],
      "stateMutability": "nonpayable",
      "type": "function"
    }
  ],
  "bytecode": "0x6080604052336000806101000a81548173ffffffffffffffffffffffffffffffffffffffff021916908373ffffffffffffffffffffffffffffffffffffffff160217905550610368806100536000396000f3fe60806040526004361061004a5760003560e01c8063273884bd1461004f5780633ccfd60b146100665780638da5cb5b1461007d578063a9059cbb146100be578063d0e30db014610119575b600080fd5b34801561005b57600080fd5b50610064610123565b005b34801561007257600080fd5b5061007b610125565b005b34801561008957600080fd5b5061009261022b565b604051808273ffffffffffffffffffffffffffffffffffffffff16815260200191505060405180910390f35b3480156100ca57600080fd5b50610117600480360360408110156100e157600080fd5b81019080803573ffffffffffffffffffffffffffffffffffffffff1690602001909291908035906020019092919050505061024f565b005b610121610330565b005b565b600047905060008060009054906101000a900473ffffffffffffffffffffffffffffffffffffffff1673ffffffffffffffffffffffffffffffffffffffff168260405180600001905060006040518083038185875af1925050503d80600081146101ab576040519150601f19603f3d011682016040523d82523d6000602084013e6101b0565b606091505b5050905080610227576040517f08c379a00000000000000000000000000000000000000000000000000000000081526004018080602001828103825260148152602001807f4661696c656420746f2073656e6420457468657200000000000000000000000081525060200191505060405180910390fd5b5050565b60008054906101000a900473ffffffffffffffffffffffffffffffffffffffff1681565b60008273ffffffffffffffffffffffffffffffffffffffff168260405180600001905060006040518083038185875af1925050503d80600081146102af576040519150601f19603f3d011682016040523d82523d6000602084013e6102b4565b606091505b505090508061032b576040517f08c379a00000000000000000000000000000000000000000000000000000000081526004018080602001828103825260148152602001807f4661696c656420746f2073656e6420457468657200000000000000000000000081525060200191505060405180910390fd5b505050565b56fea26469706673582212206892db53b9b9dd2dce1fc42fe4f5b5e8952ca9f9b2ebad1b7d79367c04cb625964736f6c63430007060033",
  "immutableReferences": {},
  "source": "// SPDX-License-Identifier: MIT\r\n\r\npragma solidity ^0.7.6;\r\n\r\n// functions and addresses declared payable can receive ether into the contract.\r\n\r\ncontract Payable {\r\n    // payable address can receive Ether\r\n    address payable public owner;\r\n\r\n    // payable constructor can receive Ether\r\n    constructor() payable {\r\n        owner = payable(msg.sender);\r\n    }\r\n\r\n    // func to deposit Ether into this contract.\r\n    // call this func along with some Ether.\r\n    // the balance of this contract will be automatically updated.\r\n    function deposit() public payable {\r\n        \r\n    }\r\n\r\n    // call this func along with some Ether.\r\n    // the func will throw an error since this func is not payable.\r\n    function notPayable() public {\r\n        \r\n    }\r\n\r\n    // func to withdraw all Ether from this contract.\r\n    function withdraw() public {\r\n        // get the amount of Ether stored in this contract\r\n        uint amount = address(this).balance;\r\n\r\n        // send all Ether to owner\r\n        // owner can receive Ether since the address of owner is payable\r\n        (bool success,) = owner.call{value: amount}(\"\");\r\n        require(success, \"Failed to send Ether\");\r\n    }\r\n\r\n    // Function to transfer Ether from this contract to address from input\r\n    function transfer(address payable _to, uint _amount) public {\r\n        // Note that \"to\" is declared as payable\r\n        (bool success,) = _to.call{value: _amount}(\"\");\r\n        require(success, \"Failed to send Ether\");\r\n    }\r\n}",
  "sourcePath": "F:/ETHDapp/payable/contracts/Payable.sol",
  "compiler": {
    "name": "solc",
    "version": "0.7.6+commit.7338295f.Emscripten.clang"
  },
  "schemaVersion": "3.3.3",
  "updatedAt": "2021-01-14T07:32:56.131Z",
  "networkType": "ethereum",
  "devdoc": {
    "kind": "dev",
    "methods": {},
    "version": 1
  },
  "userdoc": {
    "kind": "user",
    "methods": {},
    "version": 1
  }
}