{
  "contractName": "CarFactory",
  "abi": [
    {
      "inputs": [
        {
          "internalType": "uint256",
          "name": "",
          "type": "uint256"
        }
      ],
      "name": "cars",
      "outputs": [
        {
          "internalType": "contract Car",
          "name": "",
          "type": "address"
        }
      ],
      "stateMutability": "view",
      "type": "function",
      "constant": true
    },
    {
      "inputs": [
        {
          "internalType": "address",
          "name": "_owner",
          "type": "address"
        },
        {
          "internalType": "string",
          "name": "_model",
          "type": "string"
        }
      ],
      "name": "create",
      "outputs": [],
      "stateMutability": "nonpayable",
      "type": "function"
    },
    {
      "inputs": [
        {
          "internalType": "address",
          "name": "_owner",
          "type": "address"
        },
        {
          "internalType": "string",
          "name": "_model",
          "type": "string"
        }
      ],
      "name": "createAndSendEther",
      "outputs": [],
      "stateMutability": "payable",
      "type": "function",
      "payable": true
    },
    {
      "inputs": [
        {
          "internalType": "uint256",
          "name": "_index",
          "type": "uint256"
        }
      ],
      "name": "getCar",
      "outputs": [
        {
          "internalType": "address",
          "name": "owner",
          "type": "address"
        },
        {
          "internalType": "string",
          "name": "model",
          "type": "string"
        },
        {
          "internalType": "uint256",
          "name": "balance",
          "type": "uint256"
        }
      ],
      "stateMutability": "view",
      "type": "function",
      "constant": true
    }
  ],
  "bytecode": "0x608060405234801561001057600080fd5b50610c22806100206000396000f3fe60806040526004361061003f5760003560e01c80635e8be19014610044578063a15ab08d1461011c578063c33cd61514610204578063f7746e36146102df575b600080fd5b34801561005057600080fd5b5061007d6004803603602081101561006757600080fd5b8101908080359060200190929190505050610344565b604051808473ffffffffffffffffffffffffffffffffffffffff16815260200180602001838152602001828103825284818151815260200191508051906020019080838360005b838110156100df5780820151818401526020810190506100c4565b50505050905090810190601f16801561010c5780820380516001836020036101000a031916815260200191505b5094505050505060405180910390f35b34801561012857600080fd5b506102026004803603604081101561013f57600080fd5b81019080803573ffffffffffffffffffffffffffffffffffffffff1690602001909291908035906020019064010000000081111561017c57600080fd5b82018360208201111561018e57600080fd5b803590602001918460018302840111640100000000831117156101b057600080fd5b91908080601f016020809104026020016040519081016040528093929190818152602001838380828437600081840152601f19601f82011690508083019250505050505050919291929050505061056b565b005b6102dd6004803603604081101561021a57600080fd5b81019080803573ffffffffffffffffffffffffffffffffffffffff1690602001909291908035906020019064010000000081111561025757600080fd5b82018360208201111561026957600080fd5b8035906020019184600183028401116401000000008311171561028b57600080fd5b91908080601f016020809104026020016040519081016040528093929190818152602001838380828437600081840152601f19601f82011690508083019250505050505050919291929050505061068e565b005b3480156102eb57600080fd5b506103186004803603602081101561030257600080fd5b81019080803590602001909291905050506107b3565b604051808273ffffffffffffffffffffffffffffffffffffffff16815260200191505060405180910390f35b600060606000806000858154811061035857fe5b9060005260206000200160009054906101000a900473ffffffffffffffffffffffffffffffffffffffff1690508073ffffffffffffffffffffffffffffffffffffffff16638da5cb5b6040518163ffffffff1660e01b815260040160206040518083038186803b1580156103cb57600080fd5b505afa1580156103df573d6000803e3d6000fd5b505050506040513d60208110156103f557600080fd5b81019080805190602001909291905050508173ffffffffffffffffffffffffffffffffffffffff16630ad9d0526040518163ffffffff1660e01b815260040160006040518083038186803b15801561044c57600080fd5b505afa158015610460573d6000803e3d6000fd5b505050506040513d6000823e3d601f19601f82011682018060405250602081101561048a57600080fd5b81019080805160405193929190846401000000008211156104aa57600080fd5b838201915060208201858111156104c057600080fd5b82518660018202830111640100000000821117156104dd57600080fd5b8083526020830192505050908051906020019080838360005b838110156105115780820151818401526020810190506104f6565b50505050905090810190601f16801561053e5780820380516001836020036101000a031916815260200191505b506040525050508273ffffffffffffffffffffffffffffffffffffffff1631935093509350509193909250565b6000828260405161057b906107f2565b808373ffffffffffffffffffffffffffffffffffffffff16815260200180602001828103825283818151815260200191508051906020019080838360005b838110156105d45780820151818401526020810190506105b9565b50505050905090810190601f1680156106015780820380516001836020036101000a031916815260200191505b509350505050604051809103906000f080158015610623573d6000803e3d6000fd5b5090506000819080600181540180825580915050600190039060005260206000200160009091909190916101000a81548173ffffffffffffffffffffffffffffffffffffffff021916908373ffffffffffffffffffffffffffffffffffffffff160217905550505050565b600034838360405161069f906107f2565b808373ffffffffffffffffffffffffffffffffffffffff16815260200180602001828103825283818151815260200191508051906020019080838360005b838110156106f85780820151818401526020810190506106dd565b50505050905090810190601f1680156107255780820380516001836020036101000a031916815260200191505b5093505050506040518091039082f0905080158015610748573d6000803e3d6000fd5b5090506000819080600181540180825580915050600190039060005260206000200160009091909190916101000a81548173ffffffffffffffffffffffffffffffffffffffff021916908373ffffffffffffffffffffffffffffffffffffffff160217905550505050565b600081815481106107c357600080fd5b906000526020600020016000915054906101000a900473ffffffffffffffffffffffffffffffffffffffff1681565b6103ed806108008339019056fe60806040526040516103ed3803806103ed8339818101604052604081101561002657600080fd5b81019080805190602001909291908051604051939291908464010000000082111561005057600080fd5b8382019150602082018581111561006657600080fd5b825186600182028301116401000000008211171561008357600080fd5b8083526020830192505050908051906020019080838360005b838110156100b757808201518184015260208101905061009c565b50505050905090810190601f1680156100e45780820380516001836020036101000a031916815260200191505b50604052505050816000806101000a81548173ffffffffffffffffffffffffffffffffffffffff021916908373ffffffffffffffffffffffffffffffffffffffff1602179055508060019080519060200190610141929190610149565b5050506101f4565b828054600181600116156101000203166002900490600052602060002090601f01602090048101928261017f57600085556101c6565b82601f1061019857805160ff19168380011785556101c6565b828001600101855582156101c6579182015b828111156101c55782518255916020019190600101906101aa565b5b5090506101d391906101d7565b5090565b5b808211156101f05760008160009055506001016101d8565b5090565b6101ea806102036000396000f3fe608060405234801561001057600080fd5b50600436106100365760003560e01c80630ad9d0521461003b5780638da5cb5b146100be575b600080fd5b6100436100f2565b6040518080602001828103825283818151815260200191508051906020019080838360005b83811015610083578082015181840152602081019050610068565b50505050905090810190601f1680156100b05780820380516001836020036101000a031916815260200191505b509250505060405180910390f35b6100c6610190565b604051808273ffffffffffffffffffffffffffffffffffffffff16815260200191505060405180910390f35b60018054600181600116156101000203166002900480601f0160208091040260200160405190810160405280929190818152602001828054600181600116156101000203166002900480156101885780601f1061015d57610100808354040283529160200191610188565b820191906000526020600020905b81548152906001019060200180831161016b57829003601f168201915b505050505081565b60008054906101000a900473ffffffffffffffffffffffffffffffffffffffff168156fea26469706673582212206755bbcce96b2b4349d66a439063a21a954d6b8fa79280e349b64b704296e9f364736f6c63430007060033a2646970667358221220ce0251149a3a72a2ae3bdedf4e8053d9f57198cc8079789d666e5810ea267a2764736f6c63430007060033",
  "immutableReferences": {},
  "source": "// SPDX-License_Identifier: MIT\r\n\r\npragma solidity ^0.7.6;\r\n\r\ncontract Car {\r\n    address public owner;\r\n    string  public model;\r\n\r\n    constructor(address _owner, string memory _model) payable {\r\n        owner = _owner;\r\n        model = _model;\r\n    }\r\n}\r\n\r\ncontract CarFactory {\r\n    Car[] public cars;\r\n\r\n    function create(address _owner, string memory _model) public {\r\n        Car car = new Car(_owner, _model);\r\n        cars.push(car);\r\n    }\r\n\r\n    function createAndSendEther(address _owner, string memory _model) public payable {\r\n        Car car = (new Car){value:msg.value}(_owner, _model);\r\n        cars.push(car);\r\n    }\r\n\r\n    function getCar(uint _index) public view returns (address owner, string memory model, uint balance) {\r\n        Car car = cars[_index];\r\n\r\n        return (car.owner(), car.model(), address(car).balance);\r\n    }\r\n}",
  "sourcePath": "F:/ETHDapp/create_contract_by_other_contracts/contracts/ContractCreateByOtherContracts.sol",
  "compiler": {
    "name": "solc",
    "version": "0.7.6+commit.7338295f.Emscripten.clang"
  },
  "schemaVersion": "3.3.3",
  "updatedAt": "2021-01-18T05:58:45.394Z",
  "networkType": "ethereum",
  "devdoc": {
    "kind": "dev",
    "methods": {},
    "version": 1
  },
  "userdoc": {
    "kind": "user",
    "methods": {},
    "version": 1
  }
}