{
  "contractName": "Foo",
  "abi": [
    {
      "inputs": [
        {
          "internalType": "address",
          "name": "_owner",
          "type": "address"
        }
      ],
      "stateMutability": "nonpayable",
      "type": "constructor"
    },
    {
      "inputs": [],
      "name": "owner",
      "outputs": [
        {
          "internalType": "address",
          "name": "",
          "type": "address"
        }
      ],
      "stateMutability": "view",
      "type": "function"
    },
    {
      "inputs": [
        {
          "internalType": "uint256",
          "name": "x",
          "type": "uint256"
        }
      ],
      "name": "myFunc",
      "outputs": [
        {
          "internalType": "string",
          "name": "",
          "type": "string"
        }
      ],
      "stateMutability": "pure",
      "type": "function"
    }
  ],
  "bytecode": "0x608060405234801561001057600080fd5b506040516103943803806103948339818101604052602081101561003357600080fd5b8101908080519060200190929190505050600073ffffffffffffffffffffffffffffffffffffffff168173ffffffffffffffffffffffffffffffffffffffff1614156100e7576040517f08c379a000000000000000000000000000000000000000000000000000000000815260040180806020018281038252600f8152602001807f696e76616c69642061646472657373000000000000000000000000000000000081525060200191505060405180910390fd5b600173ffffffffffffffffffffffffffffffffffffffff168173ffffffffffffffffffffffffffffffffffffffff16141561011e57fe5b806000806101000a81548173ffffffffffffffffffffffffffffffffffffffff021916908373ffffffffffffffffffffffffffffffffffffffff160217905550506102268061016e6000396000f3fe608060405234801561001057600080fd5b50600436106100365760003560e01c80638da5cb5b1461003b578063a9bf56331461006f575b600080fd5b610043610116565b604051808273ffffffffffffffffffffffffffffffffffffffff16815260200191505060405180910390f35b61009b6004803603602081101561008557600080fd5b810190808035906020019092919050505061013a565b6040518080602001828103825283818151815260200191508051906020019080838360005b838110156100db5780820151818401526020810190506100c0565b50505050905090810190601f1680156101085780820380516001836020036101000a031916815260200191505b509250505060405180910390f35b60008054906101000a900473ffffffffffffffffffffffffffffffffffffffff1681565b606060008214156101b3576040517f08c379a000000000000000000000000000000000000000000000000000000000815260040180806020018281038252600e8152602001807f72657175697265206661696c656400000000000000000000000000000000000081525060200191505060405180910390fd5b6040518060400160405280601281526020017f6d792066756e63207761732063616c6c65640000000000000000000000000000815250905091905056fea2646970667358221220f253c0402f127ab6540c795a6db16e6623610a1aa016e73d51f65cd22e0d815564736f6c63430007060033",
  "immutableReferences": {},
  "source": "// SPDX-License-Identifier: MIT\r\n\r\n// try/catch can only catch errors from external function calls and contract creation.\r\n\r\npragma solidity ^0.7.6;\r\n\r\n// external contract used for try/catch examples\r\ncontract Foo {\r\n    address public owner;\r\n\r\n    constructor (address _owner) {\r\n        require(_owner != address(0), \"invalid address\");\r\n        assert(_owner != 0x0000000000000000000000000000000000000001);\r\n        owner = _owner;\r\n    }\r\n\r\n    function myFunc(uint x) public pure returns (string memory) {\r\n        require(x != 0, \"require failed\");\r\n        return \"my func was called\";\r\n    }\r\n}\r\n\r\ncontract Bar {\r\n    event Log(string message);\r\n    event LogBytes(bytes data);\r\n\r\n    Foo public foo;\r\n\r\n    constructor() {\r\n        // this foo contract is used for example of try catch with external call\r\n        foo = new Foo(msg.sender);\r\n    }\r\n\r\n    // Example of try / catch with external call\r\n    // tryCatchExternalCall(0) => Log(\"external call failed\")\r\n    // tryCatchExternalCall(1) => Log(\"my func was called\")\r\n    function tryCatchExternalCall(uint _i) public {\r\n        try foo.myFunc(_i) returns (string memory result) {\r\n            emit Log(result);\r\n        } catch {\r\n            emit Log(\"external call failed\");\r\n        }\r\n    }\r\n\r\n    // example of try/catch with contract creation\r\n    // tryCatchNewContract(0x0000000000000000000000000000000000000000) => Log(\"invalid address\")\r\n    // tryCatchNewContract(0x0000000000000000000000000000000000000001) => LogBytes(\"\")\r\n    // tryCatchNewContract(0x0000000000000000000000000000000000000002) => Log(\"Foo created\")\r\n    function tryCatchNewContract(address _owner) public {\r\n        try new Foo(_owner) returns (Foo foo) {\r\n            // you can use variable foo here\r\n            emit Log(\"Foo created\");\r\n        } catch Error(string memory reason) {\r\n            // catch failing revert() and require()\r\n            emit Log(reason);\r\n        } catch (bytes memory reason) {\r\n            // catch failing assert()\r\n        }\r\n    }\r\n}",
  "sourcePath": "F:/ETHDapp/try_catch/contracts/TryCatch.sol",
  "compiler": {
    "name": "solc",
    "version": "0.7.6+commit.7338295f.Emscripten.clang"
  },
  "schemaVersion": "3.3.3",
  "updatedAt": "2021-01-18T07:20:06.894Z",
  "devdoc": {
    "kind": "dev",
    "methods": {},
    "version": 1
  },
  "userdoc": {
    "kind": "user",
    "methods": {},
    "version": 1
  }
}