{
  "contractName": "Caller",
  "abi": [
    {
      "inputs": [
        {
          "internalType": "contract Callee",
          "name": "_callee",
          "type": "address"
        },
        {
          "internalType": "uint256",
          "name": "_x",
          "type": "uint256"
        }
      ],
      "name": "setX",
      "outputs": [],
      "stateMutability": "nonpayable",
      "type": "function"
    },
    {
      "inputs": [
        {
          "internalType": "address",
          "name": "_addr",
          "type": "address"
        },
        {
          "internalType": "uint256",
          "name": "_x",
          "type": "uint256"
        }
      ],
      "name": "setXFromAddress",
      "outputs": [],
      "stateMutability": "nonpayable",
      "type": "function"
    },
    {
      "inputs": [
        {
          "internalType": "contract Callee",
          "name": "_callee",
          "type": "address"
        },
        {
          "internalType": "uint256",
          "name": "_x",
          "type": "uint256"
        }
      ],
      "name": "setXandSendEther",
      "outputs": [],
      "stateMutability": "payable",
      "type": "function",
      "payable": true
    }
  ],
  "bytecode": "0x608060405234801561001057600080fd5b50610348806100206000396000f3fe6080604052600436106100345760003560e01c80634a2ad99f14610039578063cb58703914610094578063d44abc42146100ef575b600080fd5b34801561004557600080fd5b506100926004803603604081101561005c57600080fd5b81019080803573ffffffffffffffffffffffffffffffffffffffff1690602001909291908035906020019092919050505061013d565b005b3480156100a057600080fd5b506100ed600480360360408110156100b757600080fd5b81019080803573ffffffffffffffffffffffffffffffffffffffff169060200190929190803590602001909291905050506101d4565b005b61013b6004803603604081101561010557600080fd5b81019080803573ffffffffffffffffffffffffffffffffffffffff1690602001909291908035906020019092919050505061026d565b005b60008273ffffffffffffffffffffffffffffffffffffffff16634018d9aa836040518263ffffffff1660e01b815260040180828152602001915050602060405180830381600087803b15801561019257600080fd5b505af11580156101a6573d6000803e3d6000fd5b505050506040513d60208110156101bc57600080fd5b81019080805190602001909291905050509050505050565b60008290508073ffffffffffffffffffffffffffffffffffffffff16634018d9aa836040518263ffffffff1660e01b815260040180828152602001915050602060405180830381600087803b15801561022c57600080fd5b505af1158015610240573d6000803e3d6000fd5b505050506040513d602081101561025657600080fd5b810190808051906020019092919050505050505050565b6000808373ffffffffffffffffffffffffffffffffffffffff1663cdc2307634856040518363ffffffff1660e01b81526004018082815260200191505060408051808303818588803b1580156102c257600080fd5b505af11580156102d6573d6000803e3d6000fd5b50505050506040513d60408110156102ed57600080fd5b810190808051906020019092919080519060200190929190505050915091505050505056fea26469706673582212208101d373e974fe21db605f9a147f4daf27eb491f18560e0dfd68256355a9f94664736f6c63430007060033",
  "immutableReferences": {},
  "source": "// SPDX-License-Identifier: MIT\r\n\r\n// contract can call other contracts in 2 ways.\r\n// - the easiest way to is to just call it, like A.foo(x, y, z)\r\n// - to use ther low-level call. this method is not recommended.\r\n\r\npragma solidity ^0.7.6;\r\n\r\ncontract Callee {\r\n    uint public x;\r\n    uint public value;\r\n\r\n    function setX(uint _x) public returns (uint) {\r\n        x = _x;\r\n        return x;\r\n    }\r\n\r\n    function setXandSendEther(uint _x) public payable returns (uint, uint) {\r\n        x = _x;\r\n        value = msg.value;\r\n\r\n        return (x, value);\r\n    }\r\n}\r\n\r\ncontract Caller {\r\n    function setX(Callee _callee, uint _x) public {\r\n        uint x = _callee.setX(_x);\r\n    }\r\n\r\n    function setXFromAddress(address _addr, uint _x) public {\r\n        Callee callee = Callee(_addr);\r\n        callee.setX(_x);\r\n    }\r\n\r\n    function setXandSendEther(Callee _callee, uint _x) public payable {\r\n        (uint x, uint value) = _callee.setXandSendEther{value: msg.value}(_x);\r\n    }\r\n}",
  "sourcePath": "F:/ETHDapp/call_other_contract/contracts/CallingOtherContract.sol",
  "compiler": {
    "name": "solc",
    "version": "0.7.6+commit.7338295f.Emscripten.clang"
  },
  "schemaVersion": "3.3.3",
  "updatedAt": "2021-01-16T03:37:18.914Z",
  "networkType": "ethereum",
  "devdoc": {
    "kind": "dev",
    "methods": {},
    "version": 1
  },
  "userdoc": {
    "kind": "user",
    "methods": {},
    "version": 1
  }
}