{
  "contractName": "Callee",
  "abi": [
    {
      "inputs": [],
      "name": "value",
      "outputs": [
        {
          "internalType": "uint256",
          "name": "",
          "type": "uint256"
        }
      ],
      "stateMutability": "view",
      "type": "function",
      "constant": true
    },
    {
      "inputs": [],
      "name": "x",
      "outputs": [
        {
          "internalType": "uint256",
          "name": "",
          "type": "uint256"
        }
      ],
      "stateMutability": "view",
      "type": "function",
      "constant": true
    },
    {
      "inputs": [
        {
          "internalType": "uint256",
          "name": "_x",
          "type": "uint256"
        }
      ],
      "name": "setX",
      "outputs": [
        {
          "internalType": "uint256",
          "name": "",
          "type": "uint256"
        }
      ],
      "stateMutability": "nonpayable",
      "type": "function"
    },
    {
      "inputs": [
        {
          "internalType": "uint256",
          "name": "_x",
          "type": "uint256"
        }
      ],
      "name": "setXandSendEther",
      "outputs": [
        {
          "internalType": "uint256",
          "name": "",
          "type": "uint256"
        },
        {
          "internalType": "uint256",
          "name": "",
          "type": "uint256"
        }
      ],
      "stateMutability": "payable",
      "type": "function",
      "payable": true
    }
  ],
  "bytecode": "0x608060405234801561001057600080fd5b506101a7806100206000396000f3fe60806040526004361061003f5760003560e01c80630c55699c146100445780633fa4f2451461006f5780634018d9aa1461009a578063cdc23076146100e9575b600080fd5b34801561005057600080fd5b50610059610132565b6040518082815260200191505060405180910390f35b34801561007b57600080fd5b50610084610138565b6040518082815260200191505060405180910390f35b3480156100a657600080fd5b506100d3600480360360208110156100bd57600080fd5b810190808035906020019092919050505061013e565b6040518082815260200191505060405180910390f35b610115600480360360208110156100ff57600080fd5b8101908080359060200190929190505050610151565b604051808381526020018281526020019250505060405180910390f35b60005481565b60015481565b6000816000819055506000549050919050565b60008082600081905550346001819055506000546001549150915091509156fea2646970667358221220c17eb1506a226c346869d54024b5fc74c5b74623545e8c45ebd4755426868b4b64736f6c63430007060033",
  "immutableReferences": {},
  "source": "// SPDX-License-Identifier: MIT\r\n\r\n// contract can call other contracts in 2 ways.\r\n// - the easiest way to is to just call it, like A.foo(x, y, z)\r\n// - to use ther low-level call. this method is not recommended.\r\n\r\npragma solidity ^0.7.6;\r\n\r\ncontract Callee {\r\n    uint public x;\r\n    uint public value;\r\n\r\n    function setX(uint _x) public returns (uint) {\r\n        x = _x;\r\n        return x;\r\n    }\r\n\r\n    function setXandSendEther(uint _x) public payable returns (uint, uint) {\r\n        x = _x;\r\n        value = msg.value;\r\n\r\n        return (x, value);\r\n    }\r\n}\r\n\r\ncontract Caller {\r\n    function setX(Callee _callee, uint _x) public {\r\n        uint x = _callee.setX(_x);\r\n    }\r\n\r\n    function setXFromAddress(address _addr, uint _x) public {\r\n        Callee callee = Callee(_addr);\r\n        callee.setX(_x);\r\n    }\r\n\r\n    function setXandSendEther(Callee _callee, uint _x) public payable {\r\n        (uint x, uint value) = _callee.setXandSendEther{value: msg.value}(_x);\r\n    }\r\n}",
  "sourcePath": "F:/ETHDapp/call_other_contract/contracts/CallingOtherContract.sol",
  "compiler": {
    "name": "solc",
    "version": "0.7.6+commit.7338295f.Emscripten.clang"
  },
  "schemaVersion": "3.3.3",
  "updatedAt": "2021-01-16T03:37:18.910Z",
  "networkType": "ethereum",
  "devdoc": {
    "kind": "dev",
    "methods": {},
    "version": 1
  },
  "userdoc": {
    "kind": "user",
    "methods": {},
    "version": 1
  }
}